{
  "_format": "hh-sol-artifact-1",
  "contractName": "TestUniswapLiquidity",
  "sourceName": "contracts/addRemoveLiquidity.sol",
  "abi": [
    {
      "inputs": [
        {
          "internalType": "address",
          "name": "_tokenA",
          "type": "address"
        },
        {
          "internalType": "address",
          "name": "_tokenB",
          "type": "address"
        },
        {
          "internalType": "uint256",
          "name": "_amountA",
          "type": "uint256"
        },
        {
          "internalType": "uint256",
          "name": "_amountB",
          "type": "uint256"
        }
      ],
      "name": "addLiquidity",
      "outputs": [
        {
          "internalType": "uint256",
          "name": "",
          "type": "uint256"
        },
        {
          "internalType": "uint256",
          "name": "",
          "type": "uint256"
        },
        {
          "internalType": "uint256",
          "name": "",
          "type": "uint256"
        }
      ],
      "stateMutability": "nonpayable",
      "type": "function"
    },
    {
      "inputs": [],
      "name": "amountA",
      "outputs": [
        {
          "internalType": "uint256",
          "name": "",
          "type": "uint256"
        }
      ],
      "stateMutability": "view",
      "type": "function"
    },
    {
      "inputs": [],
      "name": "amountB",
      "outputs": [
        {
          "internalType": "uint256",
          "name": "",
          "type": "uint256"
        }
      ],
      "stateMutability": "view",
      "type": "function"
    },
    {
      "inputs": [],
      "name": "liquidity",
      "outputs": [
        {
          "internalType": "uint256",
          "name": "",
          "type": "uint256"
        }
      ],
      "stateMutability": "view",
      "type": "function"
    },
    {
      "inputs": [
        {
          "internalType": "address",
          "name": "_tokenA",
          "type": "address"
        },
        {
          "internalType": "address",
          "name": "_tokenB",
          "type": "address"
        }
      ],
      "name": "removeLiquidity",
      "outputs": [
        {
          "internalType": "uint256",
          "name": "",
          "type": "uint256"
        },
        {
          "internalType": "uint256",
          "name": "",
          "type": "uint256"
        },
        {
          "internalType": "uint256",
          "name": "",
          "type": "uint256"
        }
      ],
      "stateMutability": "nonpayable",
      "type": "function"
    }
  ],
  "bytecode": "0x608060405234801561001057600080fd5b50610bdb806100206000396000f3fe608060405234801561001057600080fd5b50600436106100575760003560e01c8063156dcbf01461005c5780631a6865021461007a5780632efe91ef146100985780639cf38f7c146100b6578063cf6c62ea146100e8575b600080fd5b61006461011a565b60405161007191906106bc565b60405180910390f35b610082610120565b60405161008f91906106bc565b60405180910390f35b6100a0610126565b6040516100ad91906106bc565b60405180910390f35b6100d060048036038101906100cb919061073a565b61012c565b6040516100df9392919061077a565b60405180910390f35b61010260048036038101906100fd91906107dd565b6103a1565b6040516101119392919061077a565b60405180910390f35b60005481565b60025481565b60015481565b600080600080735c69bee701ef814a2b6a3edd4b1652cb9cc5aa6f73ffffffffffffffffffffffffffffffffffffffff1663e6a4390587876040518363ffffffff1660e01b8152600401610181929190610853565b602060405180830381865afa15801561019e573d6000803e3d6000fd5b505050506040513d601f19601f820116820180604052508101906101c29190610891565b90508073ffffffffffffffffffffffffffffffffffffffff166370a08231306040518263ffffffff1660e01b81526004016101fd91906108be565b602060405180830381865afa15801561021a573d6000803e3d6000fd5b505050506040513d601f19601f8201168201806040525081019061023e91906108ee565b6002819055508073ffffffffffffffffffffffffffffffffffffffff1663095ea7b3737a250d5630b4cf539739df2c5dacb4c659f2488d6002546040518363ffffffff1660e01b815260040161029592919061091b565b6020604051808303816000875af11580156102b4573d6000803e3d6000fd5b505050506040513d601f19601f820116820180604052508101906102d8919061097c565b50737a250d5630b4cf539739df2c5dacb4c659f2488d73ffffffffffffffffffffffffffffffffffffffff1663baa2abde878760025460018030426040518863ffffffff1660e01b815260040161033597969594939291906109ee565b60408051808303816000875af1158015610353573d6000803e3d6000fd5b505050506040513d601f19601f820116820180604052508101906103779190610a5d565b60008060016000849190505583919050555050600054600154600254935093509350509250925092565b60008060008673ffffffffffffffffffffffffffffffffffffffff166323b872dd3330886040518463ffffffff1660e01b81526004016103e393929190610a9d565b6020604051808303816000875af1158015610402573d6000803e3d6000fd5b505050506040513d601f19601f82011682018060405250810190610426919061097c565b508573ffffffffffffffffffffffffffffffffffffffff166323b872dd3330876040518463ffffffff1660e01b815260040161046493929190610a9d565b6020604051808303816000875af1158015610483573d6000803e3d6000fd5b505050506040513d601f19601f820116820180604052508101906104a7919061097c565b508673ffffffffffffffffffffffffffffffffffffffff1663095ea7b3737a250d5630b4cf539739df2c5dacb4c659f2488d876040518363ffffffff1660e01b81526004016104f792919061091b565b6020604051808303816000875af1158015610516573d6000803e3d6000fd5b505050506040513d601f19601f8201168201806040525081019061053a919061097c565b508573ffffffffffffffffffffffffffffffffffffffff1663095ea7b3737a250d5630b4cf539739df2c5dacb4c659f2488d866040518363ffffffff1660e01b815260040161058a92919061091b565b6020604051808303816000875af11580156105a9573d6000803e3d6000fd5b505050506040513d601f19601f820116820180604052508101906105cd919061097c565b50737a250d5630b4cf539739df2c5dacb4c659f2488d73ffffffffffffffffffffffffffffffffffffffff1663e8e337008888888860018030426040518963ffffffff1660e01b815260040161062a989796959493929190610ad4565b6060604051808303816000875af1158015610649573d6000803e3d6000fd5b505050506040513d601f19601f8201168201806040525081019061066d9190610b52565b60008060016000600260008691905055859190505584919050555050506000546001546002549250925092509450945094915050565b6000819050919050565b6106b6816106a3565b82525050565b60006020820190506106d160008301846106ad565b92915050565b600080fd5b600073ffffffffffffffffffffffffffffffffffffffff82169050919050565b6000610707826106dc565b9050919050565b610717816106fc565b811461072257600080fd5b50565b6000813590506107348161070e565b92915050565b60008060408385031215610751576107506106d7565b5b600061075f85828601610725565b925050602061077085828601610725565b9150509250929050565b600060608201905061078f60008301866106ad565b61079c60208301856106ad565b6107a960408301846106ad565b949350505050565b6107ba816106a3565b81146107c557600080fd5b50565b6000813590506107d7816107b1565b92915050565b600080600080608085870312156107f7576107f66106d7565b5b600061080587828801610725565b945050602061081687828801610725565b9350506040610827878288016107c8565b9250506060610838878288016107c8565b91505092959194509250565b61084d816106fc565b82525050565b60006040820190506108686000830185610844565b6108756020830184610844565b9392505050565b60008151905061088b8161070e565b92915050565b6000602082840312156108a7576108a66106d7565b5b60006108b58482850161087c565b91505092915050565b60006020820190506108d36000830184610844565b92915050565b6000815190506108e8816107b1565b92915050565b600060208284031215610904576109036106d7565b5b6000610912848285016108d9565b91505092915050565b60006040820190506109306000830185610844565b61093d60208301846106ad565b9392505050565b60008115159050919050565b61095981610944565b811461096457600080fd5b50565b60008151905061097681610950565b92915050565b600060208284031215610992576109916106d7565b5b60006109a084828501610967565b91505092915050565b6000819050919050565b6000819050919050565b60006109d86109d36109ce846109a9565b6109b3565b6106a3565b9050919050565b6109e8816109bd565b82525050565b600060e082019050610a03600083018a610844565b610a106020830189610844565b610a1d60408301886106ad565b610a2a60608301876109df565b610a3760808301866109df565b610a4460a0830185610844565b610a5160c08301846106ad565b98975050505050505050565b60008060408385031215610a7457610a736106d7565b5b6000610a82858286016108d9565b9250506020610a93858286016108d9565b9150509250929050565b6000606082019050610ab26000830186610844565b610abf6020830185610844565b610acc60408301846106ad565b949350505050565b600061010082019050610aea600083018b610844565b610af7602083018a610844565b610b0460408301896106ad565b610b1160608301886106ad565b610b1e60808301876109df565b610b2b60a08301866109df565b610b3860c0830185610844565b610b4560e08301846106ad565b9998505050505050505050565b600080600060608486031215610b6b57610b6a6106d7565b5b6000610b79868287016108d9565b9350506020610b8a868287016108d9565b9250506040610b9b868287016108d9565b915050925092509256fea26469706673582212206165a26a32294adb156f22ab61a689c2b70924c398184c3d1efe60b9be4657da64736f6c63430008110033",
  "linkReferences": {},
  "deployedLinkReferences": {}
}